:020000040800F2
:1000000000040020B9010008BB010008BB01000882
:10001000BB010008BB010008BB010008BB010008D0
:10002000BB010008BB010008BB010008398A0008B9
:10003000BB010008BB010008BB01000805920008D5
:10004000BB010008BB010008BB010008BB010008A0
:10005000BB010008BB0100086990000891900008EE
:10006000B9900008E190000809910008BB01000860
:10007000BB010008BB01000891920008BB01000809
:1000800031910008BB010008BB010008BB0100085A
:10009000BB010008BB010008BB010008BB01000850
:1000A000BB010008BB010008699200087D920008AE
:1000B000BB010008BB010008BB010008BB01000830
:1000C000BB01000895910008BB010008BB010008B6
:1000D000BB010008BB010008BB010008BB01000810
:1000E00072B6264880F30888254880F30988254899
:1000F00025490860022080F31488BFF36F8F04F055
:10010000FCFA05F05FFE4FF0553020491B4A914242
:100110003CBF41F8040BFAE71D49194A91423CBF24
:1001200041F8040BFAE71B491B4A1C4B9A423EBF9D
:1001300051F8040B42F8040BF8E700201849194A5B
:1001400091423CBF41F8040BFAE705F0D9FE05F0F7
:10015000D5FE154C154DAC4203DA54F8041B884704
:10016000F9E707F0B7F9124C124DAC4203DA54F834
:10017000041B8847F9E705F0C2BE00000004002018
:10018000000C00200000000808ED00E00000002046
:10019000000400207CB10008000C00205811002051
:1001A00058110020F0240020E0000008E0000008C2
:1001B000E0000008E000000892E700F000F8FEE729
:1001C0002DE9F04FC1F80CD0C3689D46BDE8F08F13
:1001D000002383F311882846A047002005F014FF70
:1001E000FEE705F0B3FE00DFFEE7000038B5124B76
:1001F00004461D682A6B1AB10023C2E9044338BDC6
:10020000182000F091F80246286378B100210B23F2
:1002100001209381C2E90401084B0949094DC2E953
:10022000011300231560C2E9044338BD4621064B83
:10023000064800F053F800BF000C0020ECDE05007B
:1002400034126DE60E33CDABA4B00008BCB000088C
:1002500038B5194B1C68226B8AB113691749546968
:1002600003FB01F1164800FB0411A3FB003001332E
:1002700041EB0001C2E9043121F0004038BD1820F3
:1002800000F052F80246206388B1012400250B23B8
:100290000A480C49C2E90445116001460A4D0B4C5D
:1002A00093810B4BC2E90154C2E9043138BD52219C
:1002B000084B094800F012F8000C00202DF45158AA
:1002C0002D7F954C0E33CDAB34126DE6ECDE050080
:1002D0002E7F954CA4B00008BCB00008144600B5B1
:1002E0001A460A4B0D461B6885B0DE6803464CB1C2
:1002F00007490191304607490294009500F0E0F863
:1003000000F006F904490C46F3E700BF000C00209A
:10031000F8B0000808B1000804B1000808B5134699
:100320000022FFF7DBFF00BF024B0146186800F018
:1003300031B800BF000C0020024B0146186800F0E5
:10034000EFB800BF000C002070B5114E05463368B1
:100350000C46BBB12146284608F042FE431C01462C
:100360000CD0C41C24F00304A04205D02846611A16
:1003700008F036FE013001D0204670BD4FF0FF344A
:10038000204670BD194608F02BFE3060E2E700BF42
:10039000581100202DE9F041CD1C25F0030508354A
:1003A0000C2D38BF0C25002D064682B016DBA94265
:1003B00014D8354F00F06AF87A68AAB1144603E001
:1003C0006368224683B11C4623685B1BF8D40B2B61
:1003D00021D8A242636855D053600DE00C233360EE
:1003E000002002B0BDE8F08129463046FFF7ACFF9F
:1003F000431C044619D00560304600F04DF804F166
:100400000B00231D20F00700C21A1CBF1B1AA350AB
:1004100002B0BDE8F0816119A242256014BF5160AD
:100420007960635163684B60E6E77B6823B31C46E1
:100430005B68002BFBD122681946304604EB0208AA
:10044000019308F0CDFD804516D122683046AD1AE3
:100450002946FFF779FF01300ED0226878682A44D8
:1004600022604268019B12B90CE010465268A24219
:10047000FBD100234360BFE70C233046336000F01C
:100480000BF8ADE77B60B7E758110020014800F09A
:1004900035B800BF70110020014800F037B800BF28
:1004A000701100200CB400B583B004AB53F8042BDA
:1004B000019300F0CFF803B05DF804EB02B0704791
:1004C0000EB400B5074A82B003AB0146106853F87A
:1004D000042B019300F0BEF802B05DF804EB03B00A
:1004E000704700BF000C0020704700BF704700BF7E
:1004F000704700BF704700BF704700BF704700BF24
:100500000120704701207047704700BF704700BF4F
:10051000062008B501F03AF9012008F08DFD00BF72
:10052000002950D038B551F8043C0C1F002BB8BF3F
:10053000E4180546FFF7AAFF274A13682BB1A34228
:100540000CD92168601883422CD02846636014605F
:10055000BDE83840FFF7A0BFA3420FD81A465B683A
:10056000002BF9D111685018844217D02CD3636046
:1005700054602846BDE83840FFF78EBF1168501818
:10058000A04214D020D8216860188342EFD11868A7
:100590005B680844C4E900035460EAE723680B443D
:1005A0001360E6E718685B6808442060CDE72068C0
:1005B0000144501883421160DBD1D3E900040144A7
:1005C000C2E90014D5E770470C2328462B60BDE82C
:1005D0003840FFF761BF00BF5C1100209368013B0A
:1005E000002B936005DAD2F818C0634507DB0A29AF
:1005F00005D01368581C106008461970704700F049
:10060000B3BE00BF9BB1F8B5134406460F46541E57
:100610005D1E01E0AC4208D03A46304614F8011F96
:10062000FFF7DCFF431CF5D1F8BD0020F8BD00202A
:10063000704700BF936810B514461BB918460023D5
:10064000636010BD00F0AEFC0023A3600023636074
:1006500010BD00BF2DE9F04FA1B08B4691461C465E
:10066000049018B1036A002B00F04181DBF864208C
:10067000BBF90C30D20702D49F0540F131811E072F
:1006800040F19A80DBF81030002B00F095800023B9
:1006900043F220020D9399F800300127954E0794FC
:1006A000ADF83920002B77D04D4604E015F8013F16
:1006B000002B00F09780252BF8D1B5EB090A40F00C
:1006C00094802B78002B67D000234FF0FF32013548
:1006D000CDE9092308930B938DF863301E9306E050
:1006E0002546089B801B07FA00F0034308932C461D
:1006F000052214F8011B304601F0FAF8A146002843
:10070000EED1089BD80644BF20228DF8632019073C
:1007100048BF2B22297848BF8DF863202A297AD137
:10072000079A1168043200290792C0F2AD800B913C
:1007300069782E2900F086806F4C0322204601F054
:10074000D7F838B14022089B001B8240134309F1BF
:100750000109089319F8011B062268488DF8381022
:1007600001F0C6F8002800F09580654B002B7ED084
:1007700007A900915A460498624B08A9AFF300807C
:100780000390039B013307D00D9B039A13440D93F1
:1007900099F80030002B87D1DBF8643013F0010F9B
:1007A000BBF80C3002D19A0540F193805B0616D459
:1007B0000D9821B0BDE8F08F5946049800F022FE54
:1007C00000283FF464AFDBF86430DD0707D4BBF8E2
:1007D0000C309C0503D4DBF85800FFF797FE4FF070
:1007E000FF30E6E7B5EB090AD6D009F1FF380595E9
:1007F0004546DDF8108001E0A2453FD92C465A4617
:10080000404615F8011FFFF7E9FE02340130A4EB62
:100810000904F1D1C0E7A1F13002092A88BFA94635
:1008200087D80B9B00E00134217803EB830302EBB4
:100830004303A1F13002092AF5D92E29A1460B93D1
:100840007FF47AAF99F801102A292DD1079B09F17D
:1008500002001A680433002A0793B8BF4FF0FF3331
:1008600099F8021009928146B8BF099364E7079B83
:10087000073323F007030833079385E70D99059D98
:1008800051442B780D911DE7494243F002030B912F
:1008900008934DE707A900915A460498194B08A9F7
:1008A00000F0D2F803906CE70023A1F13002092A8E
:1008B00009F1010909933FF63FAF19F8011F03EB56
:1008C000830302EB4303A1F13002092AF5D909930E
:1008D00032E7DBF85800FFF719FEBBF80C3065E78C
:1008E000DBF85800FFF70AFEBBF90C30C7E600F052
:1008F00009FBBBE638B1000840B1000844B100086C
:1009000000000000050600088C4600B58646134628
:10091000034A714610685DF804EB6246FFF79ABE21
:10092000000C00202DE9F84F92461F460A698B689B
:100930000C469A42B8BF1A46CAF8002091F84330D4
:100940000646DDF8289013B10132CAF8002022686B
:1009500091065FD5DAF800300233CAF80030226819
:1009600012F0060F11461DD1E1689942D8BF114619
:1009700018DD4FF0000804F1190B05E0E568DAF81E
:100980000030ED1A45450CDD01235A463946304604
:10099000C847013008F10108F0D14FF0FF30BDE841
:1009A000F88F216894F84330003B18BF01238A0672
:1009B0000AD53021E21882F8431094F845105A1CE9
:1009C0002244023382F843103946304604F1430290
:1009D000C8470130E1D0D4E902202368DAF800509A
:1009E00003F00603042B21691BD08A4220DD4FF05F
:1009F0000008521A904400251A3401E0454517DAE0
:100A00000123224639463046C847013005F1010529
:100A1000F4D1C2E712F0060F0DD0003B18BF01233E
:100A2000D2E7401B8A4220EAE078E2DC0028E2DCE0
:100A30000020BDE8F88FE168DAF800309942D8BFAD
:100A4000114696DCAEE700BF2DE9F04717460A7E57
:100A500084B00C46064698460C9D01F1430C002AD2
:100A600035D0A2F15803D9B2202969D8202B67D8F4
:100A7000DFE813F0E00066006600660066006600CE
:100A800066006600660066006600940070006600FE
:100A9000660066006600700066006600660066001C
:100AA00021008300AE00660066009E0066008300A1
:100AB00066006600E6002B682268181D61692860E0
:100AC00010061B6802D4520600F1DC801960002376
:100AD000E14623613B4621463046CDF8008003AA1B
:100AE000FFF720FF013020D04A46394630462369BF
:100AF000C047013019D02368E0689B07DDF80C90EF
:100B000018D5484516DD002504F1190A04E0E0680F
:100B1000A0EB0903AB420DDD0123524639463046B6
:100B2000C047013005F10105F1D14FF0FF3004B0AD
:100B3000BDE8F0874845B8BF484604B0BDE8F08737
:100B4000012084F8422004F142090023206184F846
:100B50004330BFE72A682368111D2960190602D4B3
:100B60005D0600F193801068014600286268C0F2BB
:100B700091804FF00A0E52484AE02B682168181DF8
:100B80002860080601D449067ED419686F2A14BF6C
:100B90004FF00A0E4FF0080E494835E02A68012050
:100BA000116804322A6004F1420984F84210CCE74B
:100BB0002B6800211A1D2A60D3F80090626848460D
:100BC00000F096FE002879D0A0EB09006060BCE739
:100BD000236843F02003236078223A4884F84520B4
:100BE0002A68111D29601D064AD4590648D5118866
:100BF000DA0744BF43F02003236019B9236823F0C8
:100C0000200323604FF0100E0023626884F8433005
:100C1000002AA26016DB236823F00403236089B94D
:100C2000002A45D1E146BEF1080F1CD0ACEB090308
:100C300023614FE75823224884F845302368CFE7E3
:100C40002368C9E77546E146B1FBF5F30A4605FBA3
:100C5000131A194610F80A30AA4209F8013DF3D2D6
:100C6000BEF1080FE2D12368DD07DFD56268236992
:100C70009A42DBDC302309F1FF3989F80030D5E7EF
:100C80001168B5E7198022E719887FE7B2F90010EB
:100C900008466AE72D20002AA26084F8430002DBA0
:100CA00023F0040323600A250548AE464942CAE7FB
:100CB000037804F1420984F84230B4E7606844E7FD
:100CC0004CB1000860B10008024A0349034800F033
:100CD000DFBA00BF500C0020ED1B0008040C002000
:100CE0000C4B416810B59942044601D000F07EFFDC
:100CF000A168094B994202D0204600F077FFE168D5
:100D0000064B994204D02046BDE8104000F06EBF6B
:100D100010BD00BF80110020E811002050120020FB
:100D200008B54B6EDA0702D48B899B0501D50020EC
:100D300008BD886DFFF7E2FB002008BD08B54B6ECB
:100D4000DA0702D48B899B0501D5002008BD886D88
:100D5000FFF7DCFB002008BD2DE9F8430025042344
:100D6000304C3149DFF8C490DFF8C480314F324E47
:100D70000822C4F8381104F15C002946C4E903359F
:100D8000C4E90055C4E90555A560656600F018FC86
:100D900004F15800C4E90849C4E90A872663FFF74B
:100DA000A5FB264B2946082204F1C4006367C4E969
:100DB0001A55C4E91E552567C4F8CC50C4F88050B4
:100DC00000F0FEFB04F1680304F1C000C4F88830B1
:100DD000C4E92398C4E92576FFF788FB184B294618
:100DE00004F596700822C4F8DC30C4E93455C4E92F
:100DF0003855C4F8D850C4F83451C4F8E85000F05D
:100E0000DFFB04F1D003C4E93E87C4F8F49004F595
:100E10009470C4F80061C4F8F030BDE8F843FFF7FF
:100E200065BB00BF80110020C90C0008D512000866
:100E3000FD1200083D1300086113000809000100BD
:100E400012000200F8B506462A48FFF757FB2A4B66
:100E5000D3F83831002B43D0284FD7E90134013B78
:100E600004D524E05A1C04F1680420D0B4F90C50D5
:100E7000013B002DF6D1224B04F15800E36065667A
:100E8000FFF734FB1B48FFF741FB08222946C4E962
:100E90000155C4E904552560A56104F15C0000F02A
:100EA0008FFBC4E90D55C4E912552046F8BD3D68D5
:100EB0000DB12F46D1E74FF4D6713046FFF76AFAED
:100EC000044680B104230560294605460C304FF4E2
:100ED000D072A060636000F073FB3C602F46BCE7FB
:100EE000FFF73AFFB8E703483C60FFF70FFB0C231E
:100EF0003360DAE77C11002080110020500C0020C4
:100F00000100FFFF10B504460B48FFF7F7FA236A0C
:100F10002BB90A4B0A4AD3F83831226223B1BDE813
:100F200010400548FFF7F2BAFFF716FFBDE8104082
:100F30000148FFF7EBBA00BF7C11002080110020B0
:100F4000E10C00080148FFF7D9BA00BF7C1100206E
:100F50000148FFF7DBBA00BF7C11002008B5054847
:100F6000FFF7CCFABDE808400020034A034900F02F
:100F70008FB900BF7C110020500C0020210D00080B
:100F800008B50020044A054900F082F9BDE8084090
:100F90000348FFF7BBBA00BF500C00203D0D00080E
:100FA0007C1100209368002B00F0F0802DE9F04FB9
:100FB000B1F90CC090461CF0080F81460C4683B076
:100FC0002BD00B694BB31CF00207D8F8006032D06D
:100FD0004FF0000A5546D4F828B0216AAB4FC5B18E
:100FE000BD422B46524628BF3B464846D8470028BC
:100FF00040F3C280D8F8083082441B1A2D1AC8F872
:101000000830002B00F0AE80D4F828B0216A002D03
:10101000E6D1D6E900A50836E1E72146484600F0CA
:10102000F1F9002840F0AD80B4F90CC0D8F80060A8
:101030001CF00207CCD11CF0010A63D1574623688B
:10104000A16818468B46002F58D01CF4007F00F092
:10105000B180B9420A4600F2DD801CF4906F2FD0B7
:10106000216962695D1A02EB420202EBD2726B1CCB
:1010700052103B44934292BF93469B461A461CF43F
:10108000806F00F0E68011464846FFF783F900289C
:1010900000F0F5802A462169019000F075FCA289D4
:1010A000019B22F4906242F08002A2815819C4F898
:1010B00014B0ABEB05053A46BB462361A560206042
:1010C0003D4600275146019200F0FCF9A1682368D3
:1010D000019AA1EB0B011A44A1602260D8F80830F4
:1010E000AA445B1BC8F80830002B3BD02368A168DA
:1010F00018468B46B4F90CC0002FA6D1D6E900A73C
:1011000008369EE73846BB463D46002D40D00028B5
:1011100045D03A46D4E904C32068AA4228BF2A46EB
:101120006045A16804D901EB030A524500F38280AF
:10113000934272DC5A464846216AD4F828C0E047F8
:10114000B0F1000A18DDB7EB0A070FD00120D8F87C
:101150000830D344A3EB0A03A5EB0A05C8F808300E
:10116000002BD2D1002003B0BDE8F08F21464846C5
:1011700000F03CFD0028EAD0B4F90C3043F0400305
:10118000A3814FF0FF3003B0BDE8F08F002070471F
:10119000756833460836002DFAD0D3F800B02A46D9
:1011A0000A21584600F0A4FB002865D00130A0EBCE
:1011B0000B07AEE722699A4214D36569BD4211D884
:1011C0006FF00043BB4228BF3B4693FBF5F352460A
:1011D00005FB03F34846A56A216AA847051ECBDD37
:1011E0007F1B7BE7B94228BF39460D46184651465A
:1011F0002A4600F067F9A1682368491B2B44A160C7
:1012000023600029ECD12146484600F0EFFC00287D
:10121000E6D0B1E7BB463A4652E7594692460192BC
:1012200000F050F9A368019A9B1AA3602368134445
:10123000236088E75946524600F044F92368214666
:1012400053444846236000F0D1FC00283FF47BAFB4
:1012500092E7484600F00EFC034600287FF426AFD4
:1012600048462169FFF75CF90C22B4F90C30C9F843
:10127000002023F0800381E76A1C17464AE70C220E
:10128000B4F90C30C9F8002078E700BF00FCFF7FFC
:101290002DE9F8434FF0000980460F461646D6E97F
:1012A0000154013D10D4A389013D012B08D9B4F9A3
:1012B0000E30013304D021464046B84749EA0009C0
:1012C0006B1C04F16804EED13668002EE7D1484665
:1012D000BDE8F88310B50C46B1F90E1007F074FEA6
:1012E000002803DB636D0344636510BDA38923F409
:1012F0008053A38110BD00BF002070472DE9F0414D
:101300000C46B1F90C101F46CB05054616460BD40A
:1013100021F48051A1813B4632462846B4F90E1093
:10132000BDE8F04107F057BEB4F90E1002230022C9
:1013300007F04FFEB4F90C10EAE700BF10B50C46F9
:10134000B1F90E1007F045FEB4F90C30421C0EBF87
:1013500023F4805343F480536065A38110BD00BF24
:10136000B1F90E1007F039BEF8B506460D46144621
:1013700010B1036A002B37D0A269A389A2601A07B3
:1013800019D52369BBB122686169D31AEDB29942BC
:101390002F4620DD0133A1680139A160511C216075
:1013A000157062699A420DD0A389DB0701D50A2D19
:1013B00008D03846F8BD2146304600F023F838B949
:1013C0002369E0E72146304600F010FC0028F0D009
:1013D0004FF0FF37EDE72146304600F007FC0028CC
:1013E000F6D101232268D6E7FFF78CFDC4E700BFE2
:1013F00003460A46024908681946FFF7B5BF00BF11
:10140000000C002038B52E4B05461B680C4613B166
:101410001A6A002A4BD0B4F90C3018071CD522697F
:1014200022B313F0010107D000206169A060494296
:10143000A1613AB1002038BD980758BF6169A16029
:10144000002AF7D1190658BF1046F4D543F04003DF
:101450004FF0FF30A38138BDD9062CD55A0712D4DE
:10146000226943F00803A381002ADAD103F4207132
:10147000B1F5007FD5D02146284600F0F7FBB4F93E
:101480000C302269CDE7616B51B104F14402914205
:1014900004D02846FFF744F8B4F90C300022626308
:1014A0000021226923F02403C4E90021D9E718466A
:1014B000FFF728FDAFE7092243F040032A60C7E7A2
:1014C000000C002088420ED98B1883420BD900EB08
:1014D000020C002A6DD0624613F801CD994202F841
:1014E00001CDF9D170470F2A0FD8034602F1FF3C16
:1014F000002A5ED00CF1010C013B8C4411F8012B49
:10150000614503F8012FF9D1704740EA01039B07B9
:1015100050D1A2F1100370B501F1200C23F00F059A
:1015200001F1100E00F11004AC441B095EF8105CD0
:101530000EF1100E44F8105C5EF81C5C103444F898
:101540001C5C5EF8185C44F8185C5EF8145CE645B8
:1015500044F8145CEAD1013312F00C0F01EB0311D3
:1015600002F00F0400EB031328D08E46043C24F055
:1015700003064FEA940C1E441C1F5EF8045B44F8FB
:10158000045FB442F9D10CF1010402F0030203EB51
:10159000840301EB840102F1FF3C4AB10CF1010C20
:1015A000013B8C4411F8012B614503F8012FF9D15F
:1015B00070BD7047034602F1FF3C9BE72246EAE715
:1015C00070B5860747D0541E002A3ED00346CAB2E3
:1015D00001E0013C39D303F8012B9D07F9D1032C1D
:1015E0002CD9CDB205EB05250F2C1A4605EB054588
:1015F00034D9A4F1100C2CF00F0603F1100EB644F0
:101600004FEA1C1C156055609560D560103272451C
:10161000F8D10CF1010214F00C0F03EB021204F0EC
:101620000F0C13D0ACF1040323F003030433134471
:1016300042F8045B9A42FBD10CF003042CB1C9B20E
:101640001C4403F8011B9C42FBD170BD6446134649
:10165000002CF4D1F9E703461446C0E7A446E1E7BD
:1016600038B5C46B0CB1002038BD80210546FEF7AB
:1016700091FE0246E86330B1031F7C3243F8044F09
:101680009342FBD1EFE74FF0FF3038BD30B51F2953
:10169000054683B008D8C36B0C4653B153F82400F9
:1016A00043F8242003B030BD162303604FF0FF3011
:1016B000F8E780210192FEF76DFE019A0346E86388
:1016C0000028F3D0011F00F17C05002041F8040F31
:1016D000A942FBD1E2E700BF1F2938B505461ED855
:1016E000C26B0C466AB152F8213053B1012B06D0BF
:1016F000591C10D00021204642F8241098470020A1
:1017000038BD284600F0F2F8224601462846BDE8DA
:10171000384000F0D7B8162301202B6038BD1623BF
:101720004FF0FF302B6038BD1F292BD838B5C36B65
:101730000C460546A3B153F8242003EB84034AB1B9
:10174000511C0BD0012A07D0002520461D60904770
:10175000284638BD012038BD032038BD022038BDE1
:101760008021FEF717FE0346E86340B100201A1FF0
:1017700003F17C0142F8040F9142FBD1DBE74FF00B
:10178000FF3038BD4FF0FF30704700BF38B5134B06
:101790001F281D681DD8EA6B044662B152F820303C
:1017A0004BB1012B05D0591C0FD0002142F820105D
:1017B0009847002038BD284600F098F82246014698
:1017C0002846BDE8384000F07DB8162301202B6084
:1017D00038BD16234FF0FF302B6038BD000C0020C1
:1017E000114B1F2870B51E6808D8F36B04460D46D0
:1017F0004BB153F8240043F8245070BD16233360D6
:101800004FF0FF3070BD80213046FEF7C3FD034628
:10181000F0630028F4D00021021F7C3042F8041F3E
:101820009042FBD1E5E700BF000C002038B50B4B20
:101830001D68EC6B0CB1002038BD80212846FEF7F6
:10184000A9FDE86338B1031F00F17C0243F8044F9F
:101850009342FBD1EFE74FF0FF3038BD000C002082
:1018600038B5174B1F281D6826D80446E86BA0B171
:1018700050F8242000EB84034AB1511C0BD0012AFC
:1018800007D0002520461D609047284638BD01201E
:1018900038BD032038BD022038BD80212846FEF720
:1018A00079FDE86340B10021031F00F17C0243F899
:1018B000041F9A42FBD1DBE74FF0FF3038BD00BF79
:1018C000000C002070B50026074D0446084611465E
:1018D0002E6007F0BBFB431C00D070BD2B68002BB3
:1018E000FBD0236070BD00BFBC12002007F0B8BB66
:1018F0005FFA81FC810744D00346511E22B909E0FA
:101900009A0709D0013905D3184602780133624598
:10191000F6D1704700207047184603290CD80029DB
:10192000F8D00346014401E08B42F3D0184613F887
:10193000012B6245F8D1ECE710B50CEB0C24024604
:1019400004EB044402E00439032918D9104652F884
:10195000043B6340A3F1013E2EEA030313F0803FF2
:10196000F1D051B10346014401E08B4205D0184645
:1019700013F8012B6245F8D110BD002010BD1046B0
:10198000EFE71146C9E700BF844641EA000313F0C0
:10199000030349D1403A23D30B6803604B6843608B
:1019A0008B688360CB68C3600B6903614B694361DB
:1019B0008B698361CB69C3610B6A03624B6A4362C3
:1019C0008B6A8362CB6AC3620B6B03634B6B4363AB
:1019D0008B6B8363CB6BC36340304031403ADBD2C7
:1019E00030320BD30B6803604B6843608B688360B5
:1019F000CB68C36010301031103AF3D20C3205D3EB
:101A000051F8043B40F8043B043AF9D2043208D0C0
:101A1000D2071CBF11F8013B00F8013B01D30B8832
:101A200003806046704700BF082A13D38B07B1D0EC
:101A300010F00303AED0C3F10403D21ADB071CBFBE
:101A400011F8013B00F8013BA4D331F8023B20F828
:101A5000023B9FE7043AD9D3013A11F8013B00F861
:101A6000013BF9D20B7803704B7843708B7883700D
:101A7000604670472DE9F041144649B3EAB1064685
:101A80000D4600F07BF98442074602D8B4EB500FB4
:101A90001AD821463046FEF77DFC804678B1BC421C
:101AA0002246294628BF3A46FFF76EFF30462946B0
:101AB000FEF736FD4046BDE8F081FEF731FD4FF000
:101AC00000084046BDE8F081A8464046BDE8F081E8
:101AD0001146BDE8F041FEF75DBC00BFF8B5B1F9B5
:101AE0000C30074618070C4639D44A68002A53DDE3
:101AF000E56A002D31D000223E683A6013F480522E
:101B0000216A55D101233846A847411C02465ED0C0
:101B1000B4F90C30E56A216A5B0705D56368D21A0F
:101B2000636B0BB1236CD21A00233846A847451CBF
:101B300040D00022236962602360A389D90400D5C4
:101B40006065616B3E6041B104F14403994202D08B
:101B50003846FEF7E5FC002363630020F8BD0E69FC
:101B6000002EFAD09B0718BF00230D6808BF4B69F1
:101B70000E60AD1B8B600CE02B463246D4F828C0BB
:101B80003846216AE047B0F1000CA5EB0C0566442D
:101B900006DD002DF0DCE0E70A6C002AA8DCDCE7BB
:101BA000B4F90C3043F040034FF0FF30A381F8BD8F
:101BB000626DB1E73A68B4F90C308AB11D2A01D0E0
:101BC000162AEFD100232269C4E90023B9E73B6854
:101BD000002B9DD01D2B01D0162BE1D13E60BCE720
:101BE000626022692260DA04AAD4AAE738B50B69D8
:101BF000CBB10C46054608B1036ABBB1B4F90C3051
:101C00008BB1626ED00701D4990512D528462146C2
:101C1000FFF764FF636E0546DA0702D4A3899B05CC
:101C20000BD5284638BD0025284638BDFFF76AF990
:101C3000E4E7A06DFEF762FCE8E7A06DFEF766FC46
:101C4000EFE700BF014618B1044B1868FFF7CEBF9D
:101C5000034A04490448FFF71BBB00BF000C0020E7
:101C6000500C0020ED1B0008040C002070B5B1F9E9
:101C70000C300C46990796B007D5012204F14703B2
:101C8000C4E90432236016B070BDB4F90E100546E5
:101C9000002929DB6A4607F0C1F9002822DB4FF44E
:101CA00080612846019EFEF775FB88B3A38906F480
:101CB000704643F08003A3814FF48063B6F5005F64
:101CC000C4E904032060DED12846B4F90E1007F001
:101CD000B1F90028D7D0A38923F0030343F001030F
:101CE000A381D0E7B4F90C3013F0800F14BF402665
:101CF0004FF4806628463146FEF74CFB40B1A3897D
:101D0000C4E9040643F080032060A38116B070BDCF
:101D1000B4F90C309A05B6D4012123F0030304F181
:101D2000470243F00203C4E90421A3812260AAE729
:101D300070B50C46B1F90E10154600291E4696B036
:101D40000FDB6A4607F06AF900280ADB019B4FF4B3
:101D5000806203F47043A3F50053B3FA83F35B0985
:101D600007E0A289002312F0800F14BF40224FF435
:101D70008062002033602A6016B070BD51F8043CC8
:101D8000181F002BBCBF0B58C0187047032A70B532
:101D900011D940EA01039B071ED104460B4602E01D
:101DA000043A032A1CD91946204653F8045B54F818
:101DB000046BAE42F4D0541EAAB1421E013901E0B8
:101DC000C3180BD012F801EF11F801CFA31AE645A2
:101DD000F6D0AEEB0C0070BD541EEEE7184670BD99
:101DE00020461946E7E7104670BD00BF53B94AB90F
:101DF000002908BF00281CBF4FF0FF314FF0FF3013
:101E000000F00CB8ADF1080C6DE904CE08F0D6FA7C
:101E1000DDF804E0DDE9022304B07047704700BF3D
:101E2000014B1870704700BF96240020024603093A
:101E300006BF1846134604209A081EBF13460230F8
:101E4000C0B25B081CBF0130C0B2704710F0020F77
:101E50000CBF10224FF48012014B9A61704700BFF3
:101E6000000800400123034A834010781843107093
:101E7000704700BF2E2400200123034A83401078BE
:101E800020EA0300107070472E24002001F00703A1
:101E9000C90830B501EB4101012401390A44002190
:101EA0009C40E4B212F8015F20FA01F343F300030F
:101EB0006B40234001315D4003291570F2D130BDE4
:101EC000002210B500F00704C00800EB40000144F8
:101ED00010468B5CE34003F001039340013218434A
:101EE000032AC0B2F5D110BD17B40C46C1B2C0F37D
:101EF000072005280BD80E290FD8C0EB001001448D
:101F0000074A89B2204603B010BCFFF7BFBF031DCC
:101F1000DBB2012B01D8034AF4E703B010BC7047D1
:101F2000EB230020E8230020C3B2C0F307200528DC
:101F300082B009D80E2B0ED8C0EB00101844074908
:101F400080B202B0FFF7BCBF0430C0B2012802D893
:101F500018460349F5E7002002B07047EB23002044
:101F6000E823002030B50124084D04FA01F12B7854
:101F700004FA00F00843C1B21840814204FA02F4A6
:101F800006BF2343DBB2A3432B7030BD2E240020B9
:101F9000054B064A1B7812789A4200D170470133EC
:101FA00003F00703F8E700BF3424002033240020A7
:101FB00010B509490B7823EA000010F007040870F7
:101FC00009D1984207D0054B5B785B0703D5C00861
:101FD000FFF752FF0C7010BD2F240020302400208A
:101FE000F0B5144B144E1878144B35781B78184301
:101FF000E5B1134B9B78012B19D1124B124993F980
:102000000030002B114BB2BF1E27062719460C4685
:10201000002214F8013B0BB10132D2B23B1B0B443E
:1020200013F0FF03F5D102B133702843F0BD06274A
:102030000649ECE72A2400202B240020322400202B
:102040004811002030240020D6150020CE15002095
:10205000024A137823EA0003137070472A240020F1
:10206000E7284FD8DF2807D8312864D00ED8292890
:1020700057D02A2866D07047A0F1E003072B41D83B
:10208000DFE803F01540232831403C41392804D0D3
:10209000822802D035283FD07047324B1A789207F9
:1020A0001FD15B7813F0080F18BF292070472D4A05
:1020B0001378D9074DD4527812F0010F22D013F0C3
:1020C000100F14BF0020E3207047264B1B7813F03D
:1020D000040FF3E7234A137859073CD45278D20708
:1020E000EDD5E02070471F4B5A7891070AD51B7831
:1020F00013F0100F14BF0020E7207047194B1B7816
:102100001A07F5D47047174A1378190725D452785F
:102110009107EDD5E4207047124B1B7813F0200F88
:10212000C2E7104B1A78920619D45B7813F0080FA7
:1021300018BF392070470B4B1B7813F0400F18BFA6
:102140002A207047074B1B7813F0400F18BF31202F
:10215000704739207047E2207047E62070473520ED
:10216000D0E700BF3024002010B52F4C21784B075A
:1021700013D500F01402A2F1040C00F01803DCF1F6
:10218000000242EB0C02A3F1080CDCF1000343EB6C
:102190000C039A4218BF80F00C000B0713D500F017
:1021A0001402A2F1140C00F01803DCF1000242EB5F
:1021B0000C02A3F1180CDCF1000343EB0C039A4270
:1021C00018BF80F00C006478E30713D500F011020B
:1021D00002F1FF3C00F01803DCF1000242EB0C02BC
:1021E000A3F1080CDCF1000343EB0C039A4218BF87
:1021F00080F00900A30711D500F0110200F01803C8
:10220000A2F111046242A3F1180C6241DCF1000357
:1022100043EB0C039A4218BF80F00900CB0648BF7D
:1022200000F0E70010BD00BF3024002038B5FFF7F4
:1022300017FFB0F5A44F044643D2B0F5A04F80F08D
:10224000AE80DF2816D8CC2800F28C80A7280AD8C8
:10225000A42879D8012804D0031F9BB2A12B28BF42
:102260000024204638BDA0F1A8039BB21A2B71D9D7
:102270000024F6E7B0F5804F19D2B0F5005F80F08A
:10228000A080E728EDD9A0F580739BB2B3F5F85F85
:10229000EED2C0F30720FFF767FF0546E0B2FFF775
:1022A000DFFE2D0205F4F85540EA050450E0C0B207
:1022B000FFF7D6FE04F47064204340F4204084B25B
:1022C000CFE7B0F5A54F22D245F25F23984253D80D
:1022D00045F23F2398420FD845F21F23984244D835
:1022E000012300F00304C0F38502A34043EA421334
:1022F00043F40D439CB2B4E7012300F00304C0F3A0
:102300008202A34043EA421343F40C43F2E745F24E
:10231000BF2398420AD845F29F23984200F01F003D
:1023200035D84AF2F40343EA00249AE7A0F5A5431E
:10233000403B9BB21F2B9BD8040204F4F85444F496
:10234000204444F0F0048CE7A0F1240444F48044D9
:10235000A4B286E7234B5834E4B233F8144044F473
:1023600088447EE740F4A044F2E74AF2F10300F02B
:102370001F0443EA042474E7012300F00304C0F3BC
:102380008202A34043EA421343F40A43B2E7FFF751
:10239000EBFE040204F4F85444F4005461E700F046
:1023A0001F00FFF7E1FE03B2C20648BF1B01C4F3E2
:1023B00043144FEA042448BF1BB21C4344F41044A6
:1023C000C6E7C0F30420FFF7CFFE0546E0B2FFF7F3
:1023D00047FE2D0205F4F855054345F40055ACB20F
:1023E0003FE700BFBAAF00080020704700207047E9
:1023F00030BFFDE710B5044610B9C90FC80110BDC4
:1024000080EAE072A2EBE07212B2002901EB020353
:102410000CDB891A490191FBF3F1C1F120014BB2A8
:10242000D8B2002CBCBF4042C0B2E8E75B01521AF0
:1024300093FBF2F3C3F160035BB2F1E7144B84B09A
:1024400003EB4103E42193F85A3001904B43C2EB74
:1024500013231C33002BC0F30720B8BF5B42A0EB53
:10246000C3031BB223EAE373434300201B128DF81E
:102470000530019BDAB262F30700C3F3072262F36F
:102480000F20C3F3074363F3174004B0704700BF46
:1024900060AE0008144B84B003EB4103E42193F8D1
:1024A0005A3001904B43C2EB13231C33002BC0F373
:1024B0000740B8BF5B42A0EBC3031BB223EAE37340
:1024C000434300201B128DF80630019BDAB262F301
:1024D0000700C3F3072262F30F20C3F3074363F33C
:1024E000174004B0704700BF60AE000830B5C0F3BD
:1024F000072585B0EB1A01901046DCB2FFF77AFF92
:10250000C0EB801300EB830004440020E4B26C4372
:1025100024128DF80540019BDAB262F30700C3F381
:10252000072262F30F20C3F3074363F3174005B09C
:1025300030BD30B5C0F3074585B0EB1A01901046A9
:10254000DCB2FFF757FFC0EB801300EB83000444BD
:102550000020E4B26C4324128DF80640019BDAB2ED
:1025600062F30700C3F3072262F30F20C3F30743AC
:1025700063F3174005B030BD30B585B0C0F3072513
:1025800001909DF820001C1A1046FFF733FF2C44E1
:10259000E4B2241A0020E4B26C4324128DF8054002
:1025A000019BDAB262F30700C3F3072262F30F2044
:1025B000C3F3074363F3174005B030BD30B585B0B2
:1025C000C0F3074501909DF820001C1A1046FFF744
:1025D00011FF2C44E4B2241A0020E4B26C4324120C
:1025E0008DF80640019BDAB262F30700C3F30722BD
:1025F00062F30F20C3F3074363F3174005B030BD08
:1026000084B0019000208DF80420019BDAB262F3BF
:102610000700C3F3072262F30F20C3F3074363F3FA
:10262000174004B07047000084B0019000200B4BAD
:1026300003EB410393F85A309B1A8DF80430019B49
:10264000DAB262F30700C3F3072262F30F20C3F389
:10265000074363F3174004B0704700BF60AE000843
:1026600084B0019000200B4B03EB410393F85B30E7
:102670009B1A8DF80430019BDAB262F30700C3F3B2
:10268000072262F30F20C3F3074363F3174004B03C
:10269000704700BF60AE0008144B2C3130B503EB1F
:1026A0004104E57803EB4103A5F1200464B29B7873
:1026B000002CB8BFC5F1200585B0B8BF6CB29A1A1E
:1026C00001902244C0B210448DF804000020019B08
:1026D000DAB262F30700C3F3072262F30F20C3F3F9
:1026E000074363F3174005B030BD00BF60AE00087C
:1026F00084B0019000209DF8102003EB430302EB0F
:1027000053038DF80430019BDAB262F30700C3F380
:10271000072262F30F20C3F3074363F3174004B0AB
:1027200070471FB5019010461C46FFF763FE031962
:1027300000208DF80430019BDAB262F30700C3F386
:10274000072262F30F20C3F3074363F3174004B07B
:1027500010BD1FB501909DF818001C1A1046FFF718
:1027600049FEE4B2241A00208DF80440019BDAB23D
:1027700062F30700C3F3072262F30F20C3F307439A
:1027800063F3174004B010BD84B0019003F12C0036
:10279000104B03EB4003D8789B782038703B4B43B9
:1027A00002FB003200209DF80430002AB8BF7F32BF
:1027B00003EBE2138DF80430019BDAB262F30700F9
:1027C000C3F3072262F30F20C3F3074363F31740F9
:1027D00004B0704760AE000884B0019003F12C0093
:1027E000104B03EB4003D8789B782038703B4B4369
:1027F00002FB003200209DF80430002AB8BF3F32AF
:1028000003EBA2138DF80430019BDAB262F30700E8
:10281000C3F3072262F30F20C3F3074363F31740A8
:1028200004B0704760AE00081FB5164C2C3304EBA3
:102830004304E378A478203B5343A4F1700252B2DE
:10284000002ABCBFC4F1700462B2C2F1380201FBBD
:10285000023111EB4101019048BF7F31C0B200EB62
:10286000E1108DF804000020019BDAB262F307004A
:10287000C3F3072262F30F20C3F3074363F3174048
:1028800004B010BD60AE0008114B84B003EB4103EF
:1028900093F85A1001908B1A5BB2002BBCBF521AEE
:1028A00053B21822DBB25343C0B200EB13208DF8B1
:1028B00004000020019BDAB262F30700C3F3072291
:1028C00062F30F20C3F3074363F3174004B070476C
:1028D00060AE0008C94384B00190C9B2C0F307409C
:1028E0004143002009128DF80610019BDAB262F311
:1028F0000700C3F3072262F30F20C3F3074363F318
:10290000174004B07047C94384B0C1F385010190FA
:10291000014400208DF80410019BDAB262F3070035
:10292000C3F3072262F30F20C3F3074363F3174097
:1029300004B0704784B003EB8302BDF810300190FF
:1029400013449BB2FF2B28BFFF23DB43C0F3074098
:10295000DBB20344FF2B28BFFF2300208DF8063095
:10296000019BDAB262F30700C3F3072262F30F2080
:10297000C3F3074363F3174004B0704700291FB542
:10298000B8BF4942002AB8BF524209B2090112B287
:10299000FF294FEA0212A8BFFF21FF2AA8BFFF228A
:1029A000BDF8184009B2234412B29BB29142D4BF81
:1029B0005B189B189BB2FF2B28BFFF23DB430190C2
:1029C000DBB2C0F307400344FF2B28BFFF230020E6
:1029D0008DF80630019BDAB262F30700C3F30722D9
:1029E00062F30F20C3F3074363F3174004B010BD35
:1029F0001FB5482B0190C0F3074030D8BDF81840F0
:102A0000E31A9BB2FF2B28BFFF23083189B210299C
:102A100005D902F1080189B2112928BFFF23DB4340
:102A2000DBB21844002AB8BF0332FF2828BFFF20BA
:102A30008DF8060000200B49497801EBA2028DF8C1
:102A40000420019BDAB262F30700C3F3072262F3AA
:102A50000F20C3F3074363F3174004B010BDFF23F7
:102A6000D3E700BF1824002084B0BDF81020C0F3C5
:102A70000741D31A9BB2FF2B28BFFF23DBB2DA43F7
:102A8000D2B21144FF2928BFFF2101900344002046
:102A90008DF804308DF80610019BDAB262F307005E
:102AA000C3F3072262F30F20C3F3074363F3174016
:102AB00004B0704784B0BDF810200190D31A9BB2C7
:102AC000FF2B28BFFF23DB43C0F30740DBB20344E7
:102AD000FF2B28BFFF2300208DF80630019BDAB2C0
:102AE00062F30700C3F3072262F30F20C3F3074327
:102AF00063F3174004B07047024B1A781043187004
:102B0000704700BFA021002000F060B908B5074B56
:102B1000074A1870074B1B78C3F30103137000F0CA
:102B200063F90322044B1A7008BD00BFAD0E0020EC
:102B3000AC0E002018240020A80E0020044A1378B0
:102B400083F0010313700022024B1A70FFF7D4BF09
:102B500018240020A80E0020064A137813F003035F
:102B600004BF05490B700121137861F30103137051
:102B7000704700BF18240020A80E0020054B1A78CB
:102B800092071EBF0021044A11701A7822F0030236
:102B90001A70704718240020A80E00200C4A034623
:102BA00008461178890711D063B12D2B0CD803F09A
:102BB0003F03117863F3870111700022054B1A70EF
:102BC000FFF79ABF0123F4E72D23F2E7704700BF18
:102BD00018240020A80E00200121044B187880083A
:102BE00001302E2828BF0846FFF7D8BF1824002040
:102BF000054B01211878C0F38500013810F0FF0063
:102C000008BF2D20FFF7CABF1824002030B4084C9D
:102C10000546184623789B0708D0C82A28BFC82233
:102C20006570A170E27030BCFFF766BF30BC7047C2
:102C300018240020034901234878CA78083089788D
:102C4000FFF7E4BF18240020044901234878CA781C
:102C50000838897880B2FFF7D9BF00BF1824002058
:102C6000054801238178C2781031FF2928BFFF2150
:102C70004078C9B2FFF7CABF1824002005480123D5
:102C80008178C278103921EAE1714078C9B2FFF742
:102C9000BDBF00BF1824002005480123C2788178F9
:102CA0001032FF2A28BFFF224078D2B2FFF7AEBF12
:102CB0001824002005480123C2788178103A22EABE
:102CC000E2724078D2B2FFF7A1BF00BF1824002003
:102CD000044A012013791033FF2B28BFFF231371FF
:102CE000FFF70ABF18240020044A01201379103B83
:102CF00023EAE3731371FFF7FFBE00BF182400201F
:102D0000054BC1F18041186901F2074101F00F0143
:102D1000C84000F0010070470004004070B5072370
:102D200001264FF400444FF00045184A06FA03F11B
:102D30000142946115D0062100BF00BF00BF00BF53
:102D400000BF00BF0139F7D10321956100BF00BF6B
:102D500000BF00BF00BF00BF0139F7D1013BE5D282
:102D600070BD032100BF00BF00BF00BF00BF00BF98
:102D70000139F7D10621956100BF00BF00BF00BF38
:102D800000BF00BF0139F7D1E8E700BF00040040F1
:102D90006FF40042064B1A634FF055321A6000225E
:102DA0005A609A60DA60DA621A625A62704700BF4B
:102DB0000004004030B5044D00EB40002C18617059
:102DC0002A54A37030BD00BF9816002070B513467A
:102DD00005460E4600242046324629460134FFF7B8
:102DE000E9FF502CF7D170BD38B5302383F311883B
:102DF00000250E4C2078FFF791FF6078FFF78EFFDB
:102E00000135A078FFF78AFF502D04F10304F1D1BA
:102E10004FF4E06300BF00BF00BF00BF00BF00BFB2
:102E2000013BF7D183F3118838BD00BF981600200D
:102E3000012370B50A4C83402178DDB20B40024675
:102E40000BD108480678B2EBD60F08BF03701046C6
:102E5000FFF708F86940217070BDFFF70DF8F9E73A
:102E6000292400202F24002000EB4003C3EB031390
:102E700000EB830083B200B2002807DA803800B28A
:102E8000002800DAFF3040F30720704703F180008C
:102E9000F9E700000E4B1B78D90710D49A0710D41D
:102EA0005B0710D40B4B1B787BB11D2B4FF05000F0
:102EB00003D843431E20B3FBF0F0C0B27047142088
:102EC000FBE72820F9E75020F7E70820F5E700BFE7
:102ED0000F240020112400200F4B1B78D90710D499
:102EE0009A0710D45B0712D40C4B187868B12728C6
:102EF0000DD82823C000B0FBF3F050B180B2C0B2AF
:102F000070470220FBE70420F9E70120F7E70820DB
:102F1000F5E70120704700BF0F2400201024002097
:102F200008B5A0F1CD03122B10D8DFE803F00A108A
:102F300013192E2E2E2E2E2E2E2E1C21252B363CF6
:102F40004100FFF7A7FF40421C4BD87008BDFFF7B8
:102F5000A1FFF9E7FFF79EFF4042184B9870F5E795
:102F6000FFF798FFF9E7FFF7B7FF144B1871EDE78C
:102F7000FFF7B2FF4042F8E7FFF7AEFF40420F4BCA
:102F80005871E3E7FFF7A8FFF9E701230B4AD138AF
:102F9000517883400B435370D8E7094A137843F0C4
:102FA00001031370D2E7064A137843F00203F8E7EF
:102FB000034A137843F00403F3E700BF1224002010
:102FC0000F24002030B5414BCD2893F9035093F9DD
:102FD000024093F9041093F9052012D1002D01DA73
:102FE0000022DA70D9789A780A4351B20AB9384A7D
:102FF00011701A795B7913435AB20BB9354B1A70B9
:1030000030BDCE2802D1002DEADCEBE7CF2804D179
:10301000002CE7DA00229A70E4E7D02802D1002CD5
:10302000F8DCDFE7D92804D10029DBDD00221A71A2
:10303000D8E7DA2802D10029D4DAF7E7DB2804D16F
:10304000002ACFDA00225A71CCE7DC2802D1002A0C
:10305000F8DCC7E7D1380E28C4D801A252F820F016
:103060009D3000089D3000089D3000089D3000080C
:103070009D3000089D3000089D3000089D300008FC
:10308000E52F0008E52F0008E52F0008E52F0008D0
:10309000AB300008B7300008C130000801215A7871
:1030A000814022EA01025A709CE70B490A7822F01B
:1030B00001020A7096E708490A7822F00202F8E74E
:1030C00005490A7822F00402F3E700BF1224002029
:1030D00011240020102400200F240020024B186827
:1030E00008B1036818477047DC2300200B4B07B575
:1030F0001A8882420ED01880094B1B6853B10322F4
:103100008DF80500000A8DF806001B698DF8042073
:1031100001A8984703B05DF804FB00BF9616002095
:10312000DC2300200B4B07B51A8882420FD0188091
:10313000094B1B685BB104228DF80500000A8DF86D
:1031400006001B698DF804200DEB0200984703B0C0
:103150005DF804FB94160020DC23002010B5164B0C
:103160009B78012B11D1154A92F90020002A0CDA24
:10317000EF284FEAD00107D8114A00F007000A44AF
:10318000917883400B43937010BD00224FF0FF33C2
:103190000C4911F8014FA042F6D0B3F1FF3F01D125
:1031A00004B953B20132062AF3D15A1CECD0064AB4
:1031B00013449870E8E700BF481100203024002035
:1031C000D4150020CD150020CC15002010B5124BD1
:1031D0009A78012A12D1114B93F90030002B0DDAA5
:1031E000EF284FEAD00108D80D4B00F007000B4440
:1031F0009978824021EA02029A7010BD0023194694
:10320000084A12F8014F01338442DBB208BF117043
:10321000062BF6D1F1E700BF481100203024002032
:10322000D4150020CD150020014B5878704700BF01
:1032300048110020BFF34F8F0549064BCA6802F4BE
:10324000E0621343CB60BFF34F8F00BFFDE700BFC9
:1032500000ED00E00400FA057FB500233A4C6360FE
:1032600090F8471090F8462042EA012290F8481062
:1032700090F8490041EA0021100A032814D00DD823
:1032800001285AD002280DD15B23304A002A2E484B
:1032900008BF10466260236004B070BD21283DD095
:1032A000222842D01A46F1E7D3B2032B06D8DFE832
:1032B00003F04702070A0623254AE7E70023F1E760
:1032C0002223244AE2E7244B244E1D781DBB012211
:1032D00029461A7068461022FEF772F929462048DE
:1032E00004AB03EB610313F8102C06EB4103150943
:1032F000455D02F00F029D700025825CDD704B1C65
:10330000023106EB430320299A70DD70E8D1422395
:103310003370032373703378104AB7E70229C1D89A
:10332000104B53F821200923B0E70229BAD80E4BDD
:1033300053F821200D4B5B5CA8E712230C4AA5E74C
:1033400004230C4AA2E700BF8C1600205CA90008E9
:1033500050A900082CA90008461600204716002096
:103360001BA90008D8A90008CCA90008C9A9000811
:10337000B7A9000858A9000890F84A2090F84B0017
:10338000084942EA0022022A0B7807D1012B01D01A
:10339000062B05D14A78044B5A707047024A537085
:1033A000704700BF441600204811002070B590F807
:1033B0004410044601F07F03212B40F09B8011F064
:1033C000800F90F8453055D0022B37D0032B27D0F3
:1033D000012B4FD190F8483090F84610022B00F2A4
:1033E000AD80082900F2AA80584AD25C022A00F275
:1033F000A580A820564B00FB0233D3F8A430002B45
:1034000000F09C80534D5E6818682A46B04705F16D
:103410000803A363AB6C0022E3632264012070BD48
:1034200090F8482090F8493052EA032262D14A4984
:103430004A4B8978836319700123EDE790F848308F
:1034400090F84610022B79D8082977D83F4AD25CE9
:10345000022A73D8A8203E4B00FB0233D3F8A430D5
:10346000002B6BD05A69186890473D4B1870A363C6
:103470000123D0E70A2B22D00B2B0FD0092B39D1F7
:1034800094F8483094F8492043EA022323F00203D9
:1034900083BB344B344AA3630223BDE794F848301E
:1034A00094F8492053EA022306D194F846302A4A78
:1034B000003B18BF012393700023A363ABE7264BA7
:1034C00094F8472094F846101A7094F84830022B6C
:1034D00034D8082932D81D48C05C02282ED8A82527
:1034E0001B4B05FB0033D3F8A4303BB31D691868B0
:1034F000A847E1E701F09F01812916D194F84530F2
:10350000062B12D194F84920616894F848304D6830
:1035100043EA0223204694F8472094F84610A8472F
:1035200060B14368A363036875E70325084ED6F8C6
:103530009C302BB9013D06F1A806F8D100206EE7BA
:10354000204698470028F5D068E700BF18A9000872
:10355000C80E0020F415002048110020411600205C
:10356000401600204416002079330008302383F3EE
:103570001188026943699A4210D1C36883B101235B
:10358000D0F8882090F88C1012898B4013420CBF21
:1035900001200020002383F3118870470020F9E701
:1035A0001846F7E7036843B19100196003490B78A7
:1035B000002A18BF43F001030B7070472823002036
:1035C000006810B10068C0F387007047036870B5E9
:1035D0000BB9002070BD302383F3118803680021EC
:1035E0001C685B6881F31188002CF2D04FF47A7666
:1035F000074A0848D569084AED1AE5FB0601002389
:10360000FEF7F4FB84428CBF00200120E2E700BFFC
:10361000582300209F860100A08601004B1E072B27
:103620000BD850F8213043B19100196003490B7851
:10363000002A18BF43F001030B70704728230020B5
:10364000082906D850F8210020B10068C0F387008F
:103650007047002070470000082970B501D900208C
:1036600070BD50F82130002BF9D0302383F311883E
:1036700050F8213000211C685B6881F31188002C10
:10368000EDD04FF47A76074A0748D569074AED1A14
:10369000E5FB06010023FEF7A9FB84428CBF002056
:1036A0000120DDE7582300209F860100A08601004D
:1036B000034610B51B68984203D09C688A68944200
:1036C000F8D25A680B604A601160596010BD000062
:1036D000302383F311880D4B5B6813F4006312D021
:1036E000EFF309834FF08072203BDA6183F309889E
:1036F000074A1168D2688968926891428CBF054A6E
:10370000054A9A61704783F31188704700ED00E025
:1037100058230020E3010008E60100080346406941
:103720001A69824201D1DB681BB950F8043B0B6077
:10373000704700231846FAE770B50124468904FA59
:1037400001F53543458100EB8100C56801F00F01AB
:10375000A8698260002203604260C2602BB16A8A5D
:10376000013B1344B3FBF2F39CB2064B0482997302
:1037700021B11A7D02F0FE021A7570BD40225A7402
:10378000FBE700BF0040014010B40346006F027821
:10379000042A12D1012293F8741044898A402242EB
:1037A0000BD11A695C69A24201D1DC682CB9DB69D2
:1037B00010BC043B0432FFF7BFBF10BC7047406B26
:1037C000FFF7E2BFF0B5012400261D4603898C40B7
:1037D0001C4300EB810311F00F0108BF4027DB6899
:1037E00004815C696660E66008BF124E2560A260D5
:1037F00008BFB1731B8A08BF7774AB4228BF2B4642
:1038000023610D4CD51804EB8104954205D1094A7A
:10381000917331B101235374F0BD12F8016B26701E
:10382000F3E7517CC168098A8B4234BF0A23022323
:10383000F1E700BF004001402040014037B5406B38
:10384000D0F888402378042B13D1012390F88C50B2
:103850002289AB4013420CD101A9FFF75FFF02465A
:1038600038B129462046019B03B0BDE83040FFF740
:10387000A9BF03B030BD000000216022074B10B586
:1038800099735A7499735A74436804461B680BB150
:1038900006219847062384F8343010BD00400140CB
:1038A00090F8343010B5152B04460CD80122084985
:1038B0009A400A4208D1152B05D1036C03B19847F1
:1038C000002384F8343010BDBDE81040FFF7D4BFAA
:1038D000410E100090F8343010B5152B04460CD86A
:1038E000012208499A400A4208D1092B05D1036CEC
:1038F00003B19847002384F8343010BDBDE8104070
:10390000FFF7BABF410C300005480178052906D100
:1039100090F85030037043681B6803B11847704734
:10392000E421002008B5062200210948FDF748FEE1
:10393000084B1B78052B02D00020FEF771FA0021FE
:10394000054B102219800548BDE80840FDF738BE38
:103950007E2400209624002094240020842400202B
:10396000084B9B78012B09D1074B93F90030002BB2
:1039700004DA1E2200210548FDF722BE062200219E
:103980000348F9E74811002030240020D615002014
:10399000CE15002010B50446006840B1826C0021AD
:1039A0000830FDF70DFE002223681A605A6010BD32
:1039B00070B50026051F00F1200455F8040F38B13A
:1039C000826C00210830FDF7FBFD2B681E605E60F5
:1039D000A542F2D170BD000010B51B4B9B78012BA6
:1039E0001DD11A4B93F90030002B18DAFEF7F8FAC4
:1039F000174C2022607017492046FEF7C7F910B314
:103A0000202221461348FDF7BFFF134B1B68D3B19B
:103A100006229B6822702046BDE810401847FEF73A
:103A2000DFFA0E4C082220700D492046FEF7AEF951
:103A300048B1082221460A48FDF7A6FF064B1B683D
:103A40000BB15B68E7E710BD48110020302400206F
:103A5000D4150020BA230020DC230020CC15002040
:103A6000E023002038B51C4B1B78D3B19378C3B149
:103A700014785578844201D0854212D185424C7920
:103A80000CBF012100211144CC7014BF0121002181
:103A90005018C07828B1022B05D014D9D81E01289F
:103AA0000CD9012038BD505C2CB9FFF757FBFFF74C
:103AB00093FF0020F6E7FFF789FBF8E7033B18BF09
:103AC00001239942F5D0505C14B9FFF747FBE8E7B2
:103AD000FFF77CFBE5E700BF5611002010B5064C50
:103AE000237843B1054A137823F022031370FFF7BC
:103AF00073FF0023237010BD2624002032240020F1
:103B0000006810B440B1054C8264E469083040F8A4
:103B1000044C10BCFDF738BF10BC70475823002080
:103B20000168134631B18A6C03F108009A640831C8
:103B3000FDF72ABF7047000010B40C78082C0BD892
:103B400050F8240040B1054C8264E469083040F824
:103B5000044C10BCFDF718BF10BC70475823002060
:103B60000829134609D850F8211031B18A6C03F1A5
:103B700008009A640831FDF707BF70470146082224
:103B8000012006F09DB801462022002006F098B8DA
:103B900001460622002006F093B8014603220020C9
:103BA00006F08EB8002307B501220DF107018DF84C
:103BB000073006F013FA9DF8070003B05DF804FB28
:103BC000032838B517D8052915D80E2A13D81E236F
:103BD000540003FB0144B42303FB004404F1280018
:103BE000FFF7E0FF050204F12900FFF7DBFFADB2AC
:103BF000284380B238BD0020FCE7800070B500F596
:103C00003E7481F001000E4604EB4000FFF7CAFF4E
:103C1000002E4FEA00250CBF032001202044FFF7AF
:103C2000C1FFADB2284380B270BDCAB2C1F3072153
:103C3000052982B006D80E2A14D8032812D802B05B
:103C4000FFF7BEBFFD2906D162B903280AD80121BA
:103C500002B0FFF7D2BFFC2904D11AB9032801D85A
:103C60001146F5E7002002B0704700007FB503243D
:103C70000F4BADF804001E780E4B1B781E4346FA1E
:103C800004F3DB0705D4013CF9D20025284604B033
:103C900070BDBDF80430E5B2ADF80C30039928468C
:103CA000FFF7C3FFFEF7C2FA80B20128EBD0EDE7C1
:103CB0002E2400202D24002013B502884379ADF86E
:103CC0000420019873B169B1FFF7D0FF04460146A3
:103CD0000198FEF709F92046019902B0BDE81040AD
:103CE000FFF7A3BFFEF720F90446F4E71FB5ADF8D0
:103CF00004000198FFF7BAFFBDF80430ADF80C30AE
:103D00000399FFF792FF05B05DF804EBFEF78EBA5A
:103D100008B503460079A8B11888FFF7E7FFC3B2DA
:103D2000C0F30330062813D094BF0E30063000F0E5
:103D30000F00012810D8F02B10D004D8E72B8CBF2F
:103D40000020012008BDF42B14BF00200120F9E75A
:103D5000E72B03D9F12BF7E70020F3E70120F1E788
:103D6000242008B5FFF71EFF252801D0002008BD3C
:103D7000FFF718FF0128F9D12620FFF713FFA0F164
:103D8000190358425841F2E708B52720FFF70AFF08
:103D900008BD002307B502220DF10601ADF806307B
:103DA00006F01CF9BDF8060003B05DF804FB000046
:103DB00008B5034806F034F90022024B1A7008BD1A
:103DC00018240020A021002008B50846302383F3E2
:103DD00011880A7D0023052A06D8DFE802F00B05CA
:103DE0000503120E826913604FF0FF33836105F003
:103DF00049FF002383F3118808BD8269936801336A
:103E000093604268036813605A60EDE703460068F8
:103E100020B100221A60816105F034BF70470000B4
:103E20002DE9F84390F83430044613B1002380F8AC
:103E30003430AC4A01F00F0504F1440302EB850273
:103E400004F14C07117803F8011BBB42FAD16368F7
:103E50009B68ABB994F8443013F0600638D0002169
:103E60006022A14B99735A7499735A7463681B68E2
:103E700013B1062120469847062384F8343025E004
:103E8000204698470028E5D094F84B2094F84A3013
:103E900043EA0223E26B9A4294F9442088BFE36329
:103EA000002AE36B80F25281002B00F05D81092330
:103EB00084F83430302383F3118800212046E36BEB
:103EC000A26BFFF77FFC002383F31188BDE8F88322
:103ED00094F8452003F07F0343EA022340F20232C4
:103EE000934200F01F811FD8B3F5807F4BD00BD8D1
:103EF000012B42D0022B00F0D080002BAFD1022248
:103F0000A763E2632364BFE7B3F5817F00F0F48029
:103F1000B3F5407FA3D194F84630012B9FD1B4F87C
:103F20004C3043F0020337E0B3F5006F51D01CD89A
:103F3000B3F5A06F36D0A3F5C063012B8FD894F8EA
:103F40004920616894F848304F6843EA02232046CC
:103F500094F8462094F84710B84700283FF47FAF04
:103F60004368A3630368E3631AE0B3F5106F35D0C9
:103F700040F6024293427FF472AF5C4BA36302238C
:103F8000E3630023BEE794F84630012B7FF467AF6C
:103F9000B4F84C3023F00203A4F84C30A663E66377
:103FA000266471E7B4F84430B3F5A06F0DD194F8EE
:103FB00046304D4A84F84E30137063681B6813B165
:103FC000012120469847032323700023A363E36362
:103FD00098E704F14F03A3630123C4E72378042B7C
:103FE0004BD1302383F31188A36804F10C0703F04D
:103FF0000113A36004F1180957F8048FB8F1000FFA
:104000000FD0D8F8140020B16FF001010C30FFF789
:10401000FDFED8F8180020B16FF001010C30FFF759
:10402000F5FE4F453E60E7D100212F4B4FF0400E8B
:10403000DA79082702F00102DA714FF0800C5E7223
:1040400001220E4610209A730132D2B2042A9E74C5
:1040500083F811E05F745F745E7583F814C018759F
:104060001875F0D181F3118884F84F10032163682B
:1040700021701B680BB12046984794F84630002BFE
:10408000A3D084F84F300423237063681B68002B8F
:104090009BD002212046984797E794F9482094F84E
:1040A0004830002A03F00F030F4ADBB2937312DA91
:1040B00043B9537C58070CD4D379DB077FF5CFAED7
:1040C0000B4B5BE7517CCE0603D4D27942FA03F363
:1040D000F3E7084B52E7002BEBD0117D8906F8D4AB
:1040E000527AF3E7204001400040014096A80008C2
:1040F00092A8000894A8000894F84630002B7FF49A
:10410000AEAE94F8483013F00F023FF45EAF13F0F8
:10411000800F184B9A7302D040225A7455E78022C0
:104120001A7552E794F84630002B7FF498AE94F855
:10413000483013F00F023FF448AF13F0800F0D4BDF
:104140009A7301D01022E8E72022E9E763B1152332
:1041500084F83430302383F3118800212046E36B48
:10416000A26BFFF7E9FAAEE64821024A9573517453
:1041700083E600BF0040014070B50446C5692E6B60
:10418000C26A6B6A9A4234BFC36A6B6A013B35D21A
:10419000E36A002B3ED1EB6263681B6833B10422F3
:1041A0002046227098472378042B01D102232370E4
:1041B000302383F31188002104F10800FFF726FE65
:1041C000002383F31188F30717D5286A228E666AC5
:1041D000E36A616AD31A3344121A934228BF134622
:1041E00099424FF6FF7138BF636A013B1BD2636A85
:1041F0001BB9EB6A23F00103EB6270BD296EE26A22
:10420000013AE262A26A002AC0D01170A26A0132A9
:10421000A262BBE7E26AEB699A429EBFE36A03F1DE
:10422000FF33EB61CFE7626A013A6262226A0AB940
:104230002966DAE712F8010B28662262D5E700004A
:10424000F8B5294C851C04EB85035E68274AB369E1
:1042500090730146107DC00739D59868917392F824
:1042600017C0927D224F42EA0C2207EB810700EB38
:10427000020C60452CD1986810449860586810442E
:1042800058601868801A1860188A013880B218823D
:10429000738A934200D800BB012263898A4023EAD3
:1042A0000203638104EB85035B68DB680BB10E4896
:1042B0009847302383F3118804EB85046368986979
:1042C00041680C30FFF7A2FD002383F31188F8BD8D
:1042D00097F800E000F801EBCBE7044A137D03F008
:1042E000FE031375F3E700BFE42100200040014006
:1042F00020400140F8B5204C861C04EB86035D6825
:1043000001466A69D2E90003834218D30122238956
:104310008A4023EA02032381AB680BB12046984709
:10432000302383F3118804EB860463680021586905
:104330000C30FFF76BFD002383F3118817E00F4F5C
:10434000B97317693B445360C31ADFD0288A984277
:1043500028BF1846936810613B449360084A18448C
:1043600002EB8102984203D10122044B5A74F8BD3A
:1043700013F8011B1170F5E7E42100200040014013
:104380002040014003460068834206D002681A605C
:1043900053600023836105F075BC704700EB810317
:1043A000F7B59C6905460E46002C3AD0302383F3BE
:1043B00011880023226984F8A03063699A4201D1F0
:1043C000E36803BB05EB8603DB685B691B68D3B15D
:1043D000D4F8A47047B101A92046FFF79FF9BB6844
:1043E0000146019A38689847E368E2690133E3605F
:1043F000636920461344A2696361934224BF636AE0
:104400006361FFF7BFFF204601A9FFF787F9024666
:1044100048B1019B31462846FFF7D4F9002383F3C6
:10442000118803B0F0BD05EB8603DB681A68022A29
:10443000F4D15A691268002AF0D01B8A013B13405C
:10444000ECD105F14402E5E701F1090310B550F89C
:10445000234034B3302383F3118800EB8100C36819
:104460009B695B68BBB194F87420236F204603EB13
:104470008203DB689B695A6823691A60E26801322B
:10448000E260E2691344A2692361934224BF636A34
:104490002361FFF777FF2046FFF776F9002383F3C8
:1044A000118810BD37B50C460546FFF772FCA042D7
:1044B00007D0022228460DF10601ADF8064005F0AE
:1044C0002DFD03B030BD0000094A08B55378C3F391
:1044D000800181420BD060F3820353700420118865
:1044E000FFF7E0FFBDE808400220FDF761BD08BD11
:1044F0003024002037B50C460546FFF753FBA04299
:1045000007D0012228460DF107018DF8074005F07C
:1045100005FD03B030BD032838B51D4616D8052962
:1045200014D80E2A12D81E23540003FB0144B423CE
:1045300003FB0044290A04F12800FFF7DBFFE9B27E
:1045400004F12900BDE83840FFF7D4BF38BD032887
:1045500070B516461D4614D899B9800000F53E7412
:1045600082F0010004EB4000190AFFF7C3FF002EA0
:104570000CBF03200120E9B22044BDE87040FFF7E2
:10458000B9BF70BD2DE9F74F0024194EDFF864A0C4
:10459000D14600255FFA84F80FE0FAB240463BF8B6
:1045A000023B01370191FFF7B6FF0F2F0199F4D1BC
:1045B0000135062D09F11E0903D0CB460027E9B2CB
:1045C000EBE73388012200214046FFF7C0FF0022BD
:1045D0007388114640460134FFF7B9FF042C06F1F9
:1045E00004060AF1B40AD3D103B0BDE8F08F00BFCE
:1045F000B4AC0008E4A9000810B54FF4427420469A
:1046000000210134FFF776FFB4F5006FF7D110BD3C
:1046100010B5041E0CBFFF2125212420FFF76AFFDF
:10462000002C0CBFFF2101212520FFF763FF002C88
:1046300008BFFF21BDE8104018BF19212620FFF751
:1046400059BF08B50020FFF7E3FF27200021FFF73F
:1046500051FFFFF797FFFFF7CFFFBDE808400120AC
:10466000FFF7D6BF002208231146014805F048BED7
:104670000C080040F7B51F464BBA090C0646154614
:104680008DF80400ADF806308DF80510FFF7EAFF4D
:10469000E8B104210DEB010005F066FE044648B9BF
:1046A00045B1022E0BD0032E0ED12846B9B205F02B
:1046B00065FE044605F06CFE204603B0F0BD2846BA
:1046C000B9B205F051FEF4E74FF0FF34F2E74FF0D6
:1046D000FF34F1E728B1034B1A7810431870FFF745
:1046E0007BB970472A24002008B528B1FDF7B0FC3B
:1046F000BDE80840FFF770B908BD7047C9434FF0E7
:104700005533016302F003015943016042F3800114
:104710004160C2F3C10159438160C2F34111594361
:10472000C160C2F3C1214B43C3624FF01133C2F3E6
:10473000C3125A4302624262704708B5302383F3C2
:104740001188012100F00F039940202220F00F0072
:10475000FFF7D4FF002383F3118808BD0123C1F1C3
:10476000804101F2074101F00F012022024803FAC3
:1047700001F1FFF7C3BF00BF00040040044B93F8F2
:1047800004281AB9012083F80408704702207047F2
:1047900080190020054B93F8042822B10022012043
:1047A00083F8042870470220704700BF801900205A
:1047B00008B5064B4FF4006200211846FCF700FFD5
:1047C00040F60802C0F8002808BD00BF801900208C
:1047D000034630B52A49C3F3074213F47F4F8A5C7E
:1047E00085B0C0B2C3F3072546D00624FF23444357
:1047F000591BB4FBF3F46FF05403634303EB400322
:1048000003EB4303DBB203FB05F0C3F1FF036B4390
:1048100000121B12C0F1FF00C3F1FF0351435043CC
:104820005343C1F30721C0F30720C3F30723062C2A
:104830001ED8DFE804F004061114181D0400104609
:104840001A4613460246002062F3070063F30F2066
:1048500061F3174005B030BD08461946F1E703463D
:1048600008461146ECE710460A4601461846E8E7B6
:10487000034610460A46F0E711461346E3E700BF39
:10488000CCAC0008012830B501D8C0B230BDB0F5BD
:10489000F75F88BFFF224FF001049EBF4209083234
:1048A000D2B2A3185910C3F34705C3F34F035B43B8
:1048B0009BB2984206D2013DEAB29442F1D9013C42
:1048C000E0B2E3E7FF2902D00135ECB2F5E7084694
:1048D000DCE71FB592B2019048B2002802FB02F259
:1048E000BCBF494248B2C0F1380000FB002080B292
:1048F0001C46FFF7C7FF00EB4000044400208DF882
:104900000440019BDAB262F30700C3F3072262F3AB
:104910000F20C3F3074363F3174004B010BD00003A
:10492000074B188800EB402200EB820000F558503E
:10493000193080B2188000EB1020C0B2704700BF61
:10494000AE0E002010F0400216BFC3430346DBB298
:1049500010B503F00F0102B10131094CC3F301138B
:1049600004EB4302527814F813304A4303EB22134A
:10497000DBB2020644BF5B42DBB283F0800010BDB5
:10498000C4AC00081FB5C0F3074401905008FFF7FE
:10499000D9FFA0F180035BB2002BBCBFC0F1800047
:1049A00043B200205B00DBB263431B128DF806307C
:1049B000019BDAB262F30700C3F3072262F30F2010
:1049C000C3F3074363F3174004B010BD30B50D4681
:1049D00085B00190C4B21046FFF7B4FF124901EB55
:1049E000450191F85A30C218D2B2A2F180035BB2ED
:1049F000002BBCBFC2F1800253B20C2200205B002E
:104A0000DBB2534304EB13248DF80440019BDAB26C
:104A100062F30700C3F3072262F30F20C3F30743D7
:104A200063F3174005B030BD60AE0008FEF7C2B9B1
:104A300003010020DBB203F11002D2B2502A63F36B
:104A40000700134628BF502382B063F30F2002B043
:104A500070470000302370B583F31188124B134860
:104A60001349DC6903680A68E41AA242114A0AD9A8
:104A7000A3F58333E03B036010680F4B04F58334E8
:104A80000344E03413600C601668002181F3118840
:104A90004FF47A7509480023E4FB0501084AFDF745
:104AA000A5F9304470BD00BF58230020902100209C
:104AB0008C2100208821002088598F029F860100C8
:104AC000A086010038B5FFF7C5FF00F57A75FFF73E
:104AD000C1FF854214D9FFF7C5FDA0B1052005F03F
:104AE0001FFC05F02FFC044605F052FC002C04DBF3
:104AF00014F00104EBD1204638BD231DE7D0FAE7BE
:104B00006FF00104F7E74FF0FF34F4E738B5FFF733
:104B1000D9FF054690B9FFF7A5FD044670B1062000
:104B200005F0FEFB05F034FC2B462A462946D8202A
:104B3000FFF7A0FD10B9FFF7C5FF00B10024204624
:104B400038BD2DE9F04107460C46D600FFF7BAFF05
:104B5000054648B1324600212046FCF731FDB5FA42
:104B600085F04009BDE8F0813346224639460320EE
:104B7000FFF780FD05460028ECD121462644D1E907
:104B80000023D243DB4341F8082BB14241F8043CF7
:104B9000F5D1E4E72DE9F04F074615464FF0000A3E
:104BA000C3B00191202D2E4628BF2026F3001A46BF
:104BB0000093019B02A803EBCA01FCF7E5FE00226B
:104BC00002ABD3E90001C043C943013243F8080BEB
:104BD000964243F8041CF4D1B946DDF800800DF18B
:104BE000080B5FFA89F4C4F58074444528BF444635
:104BF000FFF768FF40BBFFF735FD28B3062005F03F
:104C00008FFB05F0C5FB23465A4649460220FFF7B5
:104C100031FDC8B9B8EB0408A344A144E1D1FFF7C2
:104C200051FF88B9FFF71EFD044668B1042005F066
:104C300077FB05F0ADFB009BAD1B1F44B244B1D127
:104C4000204643B0BDE8F08F0024F9E72DE9F34793
:104C5000FFF75CFF0146A0B1FFF790FD2B4904462A
:104C60004FF480720020FFF795FF284D0146002881
:104C700042D1012C01D1FFF78DFD40F60803C5F8A4
:104C80000038084602B0BDE8F08717F8013B4FEA4C
:104C90004E195A40A2FB003800FB0E884FEA421A18
:104CA00049EAD26913EB0A0348EB09084FEAC21A32
:104CB0009B184FEACE194FEA02264EEB080849EA44
:104CC000526913EB0A034FEA0E2E48EB09084EEA2D
:104CD000126E9B1948EB0E0EB64413EB0C02013911
:104CE000D3D16946CDE9002E4FF400600122FFF7D1
:104CF00051FF4100C9B2BCE740F601012F464FF019
:104D0000000C1220024ADFF80CE0E8E780190020CE
:104D100025232284E49CF2CB044BD3F80038B3F56E
:104D2000805F01D3FFF792BF0120704780190020F8
:104D30002DE9F04FAB4B8FB01B78AB4D8342009009
:104D40004AD1AA4B95F800801B7808F00308B8EB0D
:104D5000030818BF4FF00108A54E6B79727886F8EA
:104D600002809A4205D00022114610467370FDF76A
:104D7000CBFE009A2D2A3AD8DFE812F031003B0032
:104D80006100A400D90011011501170119012D01BD
:104D90002F014E01500152015401560158015A0190
:104DA0005C015E0160016401660168019701D40144
:104DB0001D021F022102820263030904A8044705A1
:104DC0004C054E0559055C05630565056C056E05CA
:104DD000750577057E0580054FF00108BCE7B8F141
:104DE000000F04D0002211461046FDF78DFE002072
:104DF000E0E03078FFF71CFE7E490322ADF830007A
:104E0000C5B2C0F307240DA8FCF7BEFD0D98FFF74F
:104E1000DFFC794FC1B2C0F30722C0F30743E8B209
:104E2000844201D84F2CA8E3785D96F801C010EABF
:104E30000C0F02D02846FFF7F9FD0135EFE7307877
:104E4000FFF7F6FDAA78EB7895F801808DF835200C
:104E50008DF834808DF83630ADF830005FFA80FB85
:104E6000C0F307240D98FFF7B3FCC0F30743019389
:104E70002B79C7B298448DF83480C0F3072A0D9877
:104E8000FFF7A6FC5C4DC0F307435FFA80F8C0F360
:104E9000072902935FFA8BF39C42C3D915F80B30B4
:104EA000727813420BD0D90747BF4A464146524653
:104EB000394658464CBF029B019BFFF7B7FD0BF1EB
:104EC000010BE7E73078FFF7B3FD2B79DFF8288196
:104ED0009B0895F8029095F803A0ADF83000C0F358
:104EE00007240193C7B2A8F19F0BFBB29C4299D94A
:104EF00018F807307278134217D01BF81720019961
:104F00006B78120902FB01338DF835908DF834303F
:104F10008DF836A00D98FFF75BFCC0F30743C0F394
:104F20000722C1B23846FFF781FD0137DDE730784F
:104F3000FFF77EFDDFF8C090EB7895F8048095F8D8
:104F400002A0ADF83000C0F3072401934FEA98089F
:104F5000C7B2A9F1A00BFBB29C427FF663AF19F870
:104F600007307278134218D01BF817206B7808FBB3
:104F700002F203EB62138DF83430019B8DF835A0FB
:104F80008DF836300D98FFF723FCC0F30743C0F3CC
:104F90000722C1B23846FFF749FD0137DBE7174862
:104FA00004F0B2FC06E01648FAE71648F8E716489F
:104FB00004F0FEFA0E4B1A7801321A7040B9022141
:104FC000124A9B7811701BB9009B0BB90323137015
:104FD0000FB0BDE8F08F0E48EAE70E4804F04AFB38
:104FE000E8E700BFAD0E002018240020AC0E002022
:104FF000A90E0020192400205AAF00088549000896
:105000003D24000895240008ED240008A80E002087
:105010003325000879250008BD48DFE7BD48BFE714
:10502000BD48BDE7BD48BBE7BD48B9E7BD48D5E7CA
:10503000BD48BDE7BD48BBE7BD48CFE7BD4804F06C
:105040008DFBB7E7BC48FAE7BC48F8E73078FFF7D4
:10505000EFFCADF83400C3B2C0F30724B8F1000F81
:105060001AD12B79B64A1033FF2B28BFFF231288A1
:1050700053430A22C3F30F23B3FBF2F102FB1133B4
:105080009BB2002B7FF4CEAEFFF74AFC502358436F
:10509000001204F0CDFBC5E61D46A542BFF6C2AE28
:1050A000284604F0C5FB0135F7E73178C1B92B7903
:1050B000A34A1033FF2B28BFFF2312885343052236
:1050C000C3F30F23B3FBF2F202EB82029B1A9BB2F3
:1050D00033B9FFF725FC502358439A4B0012188030
:1050E0000846FFF7A5FC0446ADF83400C5B2C4F38A
:1050F0000724B8F1000F12D1924E308885423FF656
:1051000091AEA042BFF48EAEC0B204F0CDFB5123ED
:10511000338087E6284604F0C7FB0135EDB2AC4288
:10512000F8D87FE63078FFF783FC87490322ADF893
:105130002C00C7B2C0F307240CA8FCF725FC804B59
:1051400095F8018018882B79804DDB085843C0F30F
:105150000720FFF7F7FB0C22A0F180035BB2002BC6
:10516000BCBFC0F1800043B25B00DBB2534308EB2D
:1051700013288DF830800C98FFF72AFBC0F3072323
:105180008DF83400C0F307408DF835308DF83600C7
:10519000FBB29C427FF646AEEB5D7278134208D0BC
:1051A00038469DF836309DF835209DF83410FFF7CD
:1051B0003DFC0137ECE76648F2E66648F0E63478F5
:1051C000DFF89481ACB9654FD7F80090FFF742FC47
:1051D0002B79A0EB0900C3F5A073834209D2FFF736
:1051E0009FFB502358430012A8F80000FFF732FC41
:1051F00038602046FFF71CFCB8F80070ADF83000AE
:10520000C0F30724C0B2B8423FF60CAEA742BFF4C9
:1052100009AE534B3B4493F8FA2073781A423FF49B
:1052200001AEFFF77DFB820726D4FFF779FB01462D
:10523000FFF776FB40F357037F33EA78DBB28DF854
:1052400034108DF835308DF836200D98FFF7C0FA00
:10525000C0F30722C0F307438DF82C008DF82D20F2
:105260008DF82E30C1B2DBB23846D2B2FFF7DEFB8A
:105270005123A8F80030D5E5002213461146DEE799
:105280002F4BDFF8E090D3F800A0D9F80030534559
:105290003FF6ADAD344FB8F1000F69D13078FFF76C
:1052A000C7FBADF83000C0F30724C0B200EB4008E4
:1052B000DFF898B0B844C3B29C4200F291804F2C02
:1052C0007FF6B0AD294904EB4402033AC81EFCF74F
:1052D000F9F8FFF725FB04F1FF3810F0020F4FEA51
:1052E000480600F0908000234644BA19BB5553701D
:1052F00093702B7940F6B8321033FF2B28BFFF2371
:105300001B09B2FBF3F35344C9F800308AE500BF30
:10531000BD2500080126000829260008612600088E
:1053200099260008F1260008D34800082327000822
:105330005327000889270008D927000829280008D2
:10534000BC180020A40E0020192400205AAF000829
:10535000CD49000889280008A60E00208C170020DF
:1053600060AE0008801800209017002093170020DE
:105370000022002411461046FDF7C6FBB846A3469E
:10538000FFF7CEFA83070BD588F800B088F801B094
:1053900088F802B00134502C08F10308F0D17DE701
:1053A000FFF7BEFA8DF83400FFF7BAFAEB7840F356
:1053B00057007F3004EB44028DF836308DF835000D
:1053C000BB180D9802920193FFF702FA029A019B13
:1053D000B854C0F30722C0F307405A709870D9E759
:1053E0001BF800307278134209D098F8023098F810
:1053F000012098F800100190FFF718FB019808F1C0
:105400000308013057E7FFF78BFA8DF83400FFF7F8
:1054100087FAEB7840F357007F308DF836308DF8FF
:1054200035000D98FFF7D4F94644B85507EB060848
:10543000C0F30723C0F3074088F8013088F8020062
:1054400057E7B8F1000F04D0002211461046FDF7CF
:105450005BFB3078FFF7ECFAC0F307230593904B22
:10546000ADF82C001B6802938E4B029A1B689A427F
:1054700040F2818003228C490DA8FCF785FA0D9833
:10548000FFF7A6F9C0F30722C0F307438DF83120D8
:105490008DF83230C1B2D2B2DBB2844E844C8DF87A
:1054A0003000049101920393A1460F34CB46A246EB
:1054B0003746002517F8013B002B62D0039B019A69
:1054C0000499DFF8F0C11BF8010B9CF80180DFF8AC
:1054D000E0C184449CF8FAC018EA0C0F01D0FFF731
:1054E000A5FA1AF8010DDFF8C8C184449CF8FAC087
:1054F00018EA0C0F01D0FFF799FA01353B78EDB2AD
:10550000062D07F8013CD5D1B379002B3CD0039B85
:10551000019A049999F80600654D054495F8FA50EA
:1055200018EA050F01D0FFF781FA99F80800604DDD
:10553000054495F8FA5018EA050F01D0FFF776FAFE
:10554000FFF7EEF910F0030F0CBF01230023B37136
:10555000594B07369C42A7D1584B40F6B8321B79BD
:105560001033FF2B28BFFF231B09B2FBF3F3029A72
:1055700013444C4A1360059B4F2B8CBF0020012025
:1055800018E51A4619469CE71A461946C2E73478C8
:105590002046FFF74DFAC3B2ADF82C000193C0F3DB
:1055A000072BB8F1000F09D0002211461046FDF775
:1055B000ABFA5A2200214248FCF702F87CB9414C70
:1055C0002588FFF747FA401B80B218288CBF0122BC
:1055D00000223D4B1A7002D9FFF73CFA20800025CB
:1055E0002F460F26324B05EB030A354B05EB03081C
:1055F0001AF8019B019B4B4542D8CB4540D92C4B17
:105600004B4493F8FA202B4B5B781A4236D098F82B
:1056100000402A4904F1AA03FF2B28BFFF2303EB14
:1056200043038A780233C978DBB24B43A4F15501B6
:1056300021EAE1711B0AC1F1AA018DF830108DF841
:1056400031208DF832300C98FFF7C2F8C0F30722F2
:10565000C0F307438DF834008DF835208DF83630CF
:10566000C1B2DBB24846D2B2FFF7E0F9164B1B7865
:1056700023B1013C24EAE47488F800400137FFB20A
:10568000013E16F0FF0608F10108B1D14B2D02D101
:10569000BBF14F0F71E70F2F05F10F05A1D9F7E708
:1056A000BC180020B0180020192400208418002005
:1056B00060AE0008A90E0020BAAE00081824002031
:1056C00038220020B6180020B4180020EC787D4E57
:1056D00004EB44034FEAA3099B080293FF23B3FBA7
:1056E000F4F30193B8F1000F0BD0002211461046DD
:1056F000FDF70AFA5A2200217348FBF761FF0023E5
:1057000033704FF0000A714FDFF8BCB13B780133C2
:105710003B70D84600256E4B53440393A4EB09031A
:10572000049333782B43DBB2002B37D1FAF790FD8B
:10573000684B984232DC8BF80040039AC5EB0513A6
:10574000D05CFF2810D098F80020029B934234D2FE
:10575000A2EB090309FB03F3049A93FBF2F322463D
:10576000DBB21946FFF762F90135062D08F10F0883
:10577000D7D10AF1010ABAF10F0F0BF1010BC8D111
:105780003B78019A934204BF00233B703378013386
:10579000DBB21C2B17D83370FFF729BB98F8003009
:1057A000002BCAD09C42C8D93A7801998A4204BFDA
:1057B00003F1FF3388F80030BFE76243B2FBF9F230
:1057C0000023D2B2CDE7002333700523424D661E7D
:1057D00029460F224148052B03D10778BC4208BF58
:1057E000067011F8017F013AA74224BF0E70CC73F6
:1057F00012F0FF0200F10100EDD1013B13F0FF03B5
:10580000A5F10F05E4D1FFF7F2BA354804F0D2F85C
:10581000FFF7D0BB3348F9E7334B344918780138E8
:1058200020EAE070C0B204F041F9FFF7C3BB2F4992
:105830000020F8E72C4B2E491878013820EAE07058
:10584000F0E72B49F4E7284B2A491878013820EA79
:10585000E070E7E72749EBE7234B27491878013841
:1058600020EAE070DEE72449E2E71F4B234918787D
:10587000013820EAE070D5E72049D9E73078FFF712
:10588000D7F8ADF83400C0F30724C5B2EBB2A34299
:1058900010D30023FF211A462F20FFF7C7F833202B
:1058A000FFF7C4F83420FFF7C1F83520FFF7BEF842
:1058B000FFF7B8BA0122284680233421FFF7B6F853
:1058C0001544E3E7B918002038220020B81800205A
:1058D00060AE000854555505732200208322002035
:1058E000D528000807290008A12100203529000833
:1058F0007D290008F1290008692A0008B52A000856
:105900002DE9F04F964C89B0D4F80080FFF7A2F84B
:105910008146A0EB0806FFF79DF820600024914F18
:10592000054697F800C02046614608F57F43FF33DF
:10593000A3EB090EE3B29C4514D800B139708A4B31
:105940001B7833BB894B1B7813F0030400D09C08F1
:10595000874E3378032B68D8DFE813F01D002A0048
:10596000EC00F20004F10C0207EB4202537892F8CB
:105970000280013443EA08239E4529BF9B1901F1A7
:10598000FF315370C3F307233ABF0120C9B29370AC
:10599000D0E70024DCE70022764B72491A70764B80
:1059A000292276481D60FBF7EFFF012333703CE0AE
:1059B0002046FFF7BDF9002C37D06E4B6B4F18789F
:1059C000DFF8BC810138C0B2FFF732F86D4BADF89B
:1059D0000C00C4B2C0F3072618786B4B1B78184331
:1059E000FCF724FA0546E0B2864221D8032D1CD1EB
:1059F0000C22664905A8FBF7C7FF0027DFF8908156
:105A0000DFF8909105AC637818F801AB0093CAF108
:105A10000503DBB225780193009BAB4280F08680C2
:105A20000137062F04F10204EDD109B0BDE8F08F73
:105A300097F801C0BA78FB783DB998F80030052B8B
:105A400035D0322833D100233DE0012D3ED1062848
:105A500009D801280DD9811E04290AD8DFE801F0F0
:105A60002E292E0921003F2823D040282AD0322871
:105A7000E9D08DF810C08DF811205B088DF8123038
:105A80000498FEF7A5FEC0F30722C0F307438DF884
:105A900015208DF816308DF81400DBB2D2B2C1B2E9
:105AA0000AE0FF2306201A461946FEF7BFFF01341D
:105AB00099E7FF230022E4212046F6E7FF239822FE
:105AC000FB21F9E712230022FF21EEE7022DEED1A0
:105AD000152801D0372803D10023FF211A46EBE710
